:100000000C94A3000C94AE010C94BE000C94BE00A2
:100010000C94BE000C94BE000C94BE000C94BE0068
:100020000C94BE000C94BE000C94BE000C94B4035F
:100030000C94BE000C94BE000C94BE000C94BE0048
:100040000C94CE090C94BE000C94BE000C94BE001F
:100050000C94BE000C94BE000C94BE000C94BE0028
:100060000C94BE000C94BE000C94BE000C94BE0018
:100070004201440149014B014D014D014F01540121
:1000800058015B016D016D016D016D016D016D0127
:100090006D0160016501670169016D016D016D010F
:1000A0006D016D016D016D016D016D016D016D01E0
:1000B0006D016D016D016D016D016D016D016D01D0
:1000C0006D016D016D016D016D016D016D016D01C0
:1000D0006D0160016501670169017408E808530555
:1000E000E80874086B048808E808E808E808E808E5
:1000F000CD08830435044305E808E8086206F904DE
:100100004B07E8083D04A208E808E8084F04E8089F
:10011000E808E808E808E808E808E808E808E8085F
:10012000E808E808E808E808E808E808E808E8084F
:10013000E8088304E808E808E808E8086205F90424
:10014000C205E808450411241FBECFEFD4E0DEBF8E
:10015000CDBF11E0A0E0B1E0EAE2F4E102C0059019
:100160000D92A031B107D9F711E0A0E1B1E001C0D3
:100170001D92A533B107E1F70C9403090C9400001C
:1001800085B19927809590959C012170307080FFF2
:100190000AC0939800000000000086B3939A992744
:1001A0008F7790700895C9010895982F8599FECF93
:1001B0008FEF87BB98BB949A00009498000017BA01
:1001C00088BB0895CF93C82F82958F70982F9F700A
:1001D0008A3018F4892F805D02C0892F895C0E94C3
:1001E000D5008C2F99278F7090702C2F2F700A9725
:1001F0001CF4822F805D02C0822F895C0E94D50092
:10020000CF910895CF93DF93EC018881882331F05B
:1002100089910E94D50088818823D1F7DF91CF9101
:100220000895A79A329A3A980000000000003A9A7E
:10023000000000000000929AAE98809122019091F7
:1002400023019070909323018093220181E0809399
:10025000001187EC80931F111092041180910A0104
:100260008823F1F19927AA27BB27FC01F097E533F2
:10027000F10598F5E85CFF4FEE0FFF1F0590F49134
:10028000E02D099487E601C083E5809306118FE293
:100290002DC087E4FACF83E4F8CF83E001C081E08A
:1002A000809306118CE122C01092061186E11EC0D7
:1002B0001092061108C083EC809306118EE416C0DC
:1002C0008BE48093061184E111C084E103C08DE1C9
:1002D000F8CF8FE78093061109C087E090E008957A
:1002E0008091080180930611809109018093071184
:1002F00082EC80930811809100018093101180910D
:10030000010180931111809102018093121180915B
:100310000301809313118091040180931411809143
:10032000050180931511809106018093161180912B
:100330000701809317118FEE809304118DE090E0F8
:100340000895882311F4AD9A01C0AE9A81EB83BD64
:1003500089B7846089BF87E087BD08951F920F9297
:100360000FB60F921124CF92DF92EF92FF920F936C
:100370001F932F933F934F935F936F937F938F932D
:100380009F93AF93BF93CF93DF93EF93FF93C0906F
:100390000311CC2DDD27C1FF09C08091220190916E
:1003A0002301877F9093230180932201C0FFC0C067
:1003B0009091101197FF04C081E08093250102C045
:1003C0001092250196FF04C081E080932A0102C0AB
:1003D00010922A01892F8F7080932B01893018F099
:1003E00088E080932B01809125012091111160916B
:1003F0001211E091131170911411F09115111091D7
:10040000161100911711F0901811E0901911D09069
:100410001A11882379F5822F9927AA27BB2723E071
:10042000880F991FAA1FBB1F2A95D1F76295669561
:100430006770262F332744275527822B932BA42B15
:10044000B52B8093260190932701A0932801B093A8
:100450002901E0932C0170932D01F0932E0110934C
:100460002F0100933001F0923101E0923201D092DD
:1004700033014FC0332744275527A5E1220F331FEF
:10048000441F551FAA95D1F7862F9927AA27BB2766
:100490006DE0880F991FAA1FBB1F6A95D1F7282B03
:1004A000392B4A2B5B2B8E2F9927AA27BB2765E078
:1004B000880F991FAA1FBB1F6A95D1F7282B392BCC
:1004C0004A2B5B2B769576957695872F9927AA27C9
:1004D000BB27282B392B4A2B5B2B209326013093EB
:1004E00027014093280150932901F0932C01109388
:1004F0002D0100932E01F0922F01E0923001D09255
:10050000310180911B118093320180911C118093E5
:10051000330184E0809301118091220190912301A5
:100520008260909323018093220180E00E94A101C8
:10053000C3FF0CC081E00E94A10180912201909133
:10054000230198609093230180932201C2FF0CC085
:1005500081E00E94A1018091220190912301946089
:100560009093230180932201C7FE1CC080910C113F
:100570008093240182E08093011181E00E94A10117
:1005800080912201909123019068909323018093A0
:1005900022018091220190912301877F9093230172
:1005A00080932201C5FF0CC081E00E94A1018091CF
:1005B0002201909123019062909323018093220164
:1005C000C6FF10C080910B118093120181E00E9440
:1005D000A1018091220190912301906490932301C5
:1005E00080932201FF91EF91DF91CF91BF91AF9165
:1005F0009F918F917F916F915F914F913F912F913B
:100600001F910F91FF90EF90DF90CF900F900FBE52
:100610000F901F901895EF92FF920F931F93CF9317
:100620008091021182FD03C087E090E088C0909124
:1006300019019F70809118018111906480911301BC
:10064000811190689093101120911401309115013F
:1006500040911601509117016091140170911A0197
:10066000E0911B01F0911C01C0911D0110911E0130
:1006700000911F01F0902001E09021018823F9F4FE
:1006800083E056954795379527958A95D1F720931E
:1006900011116295660F607E6093121170931311B1
:1006A000E0931411F0931511C093161110931711C4
:1006B00000931811F0921911E0921A1138C0DA0162
:1006C000C901072E75E1B695A795979587957A95F7
:1006D000D1F7702D80931111DA01C901072E7DE049
:1006E000B695A795979587957A95D1F7702D8093B4
:1006F0001211A5E05695479537952795AA95D1F7FC
:1007000020931311660F660F660F60931411709398
:100710001511E0931611F0931711C093181110934F
:10072000191100931A11F0921B11E0921C1181E033
:100730008093011180E00E94A1018DE090E0CF91B3
:100740001F910F91FF90EF9008958F77E82FFF276B
:10075000E050FE4D8081992708958F77E82FFF277D
:10076000E050FF4E608308951F920F920FB60F92D4
:1007700011248F939F9317BC89B78B7F89BFAD9846
:10078000809122019091230197FFAE989F918F91C4
:100790000F900FBE0F901F901895FC01808181363D
:1007A00010F0875203C0813408F087508053992796
:1007B0008F70907008952F923F924F925F926F9238
:1007C0007F928F929F92AF92BF92CF92DF92EF92E1
:1007D000FF920F931F93CF93DF93CDB7DEB7289788
:1007E0000FB6F894DEBF0FBECDBF8C01FC010190A7
:1007F0000020E9F73197DE2ED81A019698878F836B
:100800002C014C019E838D839C838B839A838983E7
:100810001C013C015C017C01FC018081882381F08A
:10082000EF81F885808199270E94EE09892B09F4D0
:10083000CFC48F819885019698878F83FC01EDCF77
:10084000F8012081822F9927AA27BB27FC01E154B8
:10085000F040E633F10508F0BBC4E359FF4FEE0F5B
:10086000FF1F0590F491E02D09948EE40E94D500BD
:100870008BE091E00E940201A8C486E50E94D500A9
:1008800080E10E94E20080E107C086E70E94D50077
:1008900081E00E94E20087E00E94E20096C420E02E
:1008A00030E0D9010E94F809802D99278093340106
:1008B000882319F01092340107C085EA809334012F
:1008C000109211011092100180913401D901082E6B
:1008D0000E94000A7AC4809122019091230182FF34
:1008E00077C486E40E94D500809122019091230173
:1008F000892F99270E94E200AE9880912201909161
:10090000230190705EC4F9E0DF1609F061C48091A4
:1009100022019091230182FD5BC42D3629F414E05D
:10092000C12E11E0D12E04C0B0E0CB2EB1E0DB2E01
:10093000F886EF82C7010E94CD03182F1295107F11
:10094000F601108376010894C11CD11C8F81988513
:10095000019698878F830E94CD03182BF70110838F
:100960008F819885019698878F830E94CD03182FD9
:100970001295107FF601108376010894C11CD11CDA
:100980008F819885019698878F830E94CD03182BBD
:10099000F70110838F819885019698878F830E9435
:1009A000CD03182F1295107FF6011083760108945D
:1009B000C11CD11C8F819885019698878F830E94D6
:1009C000CD03182BF70110838F81988501969887A6
:1009D0008F830E94CD03182F1295107FF60110838C
:1009E0008F81988501960E94CD03182BF601108304
:1009F00047C0F5E0DF1621F082E0D81609F0E8C321
:100A0000809122019091230182FDE2C3233759F5A1
:100A1000B886AF82C5010E94CD03182F1295107FB2
:100A200010930801F5013196F887EF83CF010E94FA
:100A3000CD03182B109308018F8198850196988714
:100A40008F830E94CD03182F1295107F10930901F8
:100A50008F81988501960E94CD03182B1093090170
:100A600010920A0104C0F301808180930A018091F1
:100A700022019091230181609093230180932201B0
:100A80000E9411012FC3809122019091230180FFC8
:100A90009FC3809122019091230182FD99C380918F
:100AA00000118E7F87C3809122019091230182FFE4
:100AB0008FC381E0809300118091220190912301E6
:100AC0008B7F7FC3809122019091230182FF80C39D
:100AD000809122019091230183FD7AC3F5E0DF1616
:100AE00009F076C381E080931801109213013886D3
:100AF0002F82C1010E94CD03E82EFF240027112779
:100B0000A4E0EE0CFF1C001F111FAA95D1F7E09284
:100B10001401F09215010093160110931701C10101
:100B2000019698878F830E94CD03E80EF11C011D6A
:100B3000111DF4E0EE0CFF1C001F111FFA95D1F7F8
:100B4000E0921401F0921501009316011093170121
:100B5000EF81F8853196F887EF83CF010E94CD03AE
:100B6000E80EF11C011D111DE0921401F092150117
:100B700000931601109317018F81988501960E94AA
:100B8000CD0386C1809122019091230182FF20C371
:100B9000809122019091230183FD1AC38D2D8550F0
:100BA000813108F015C31092180110921301898148
:100BB0009A8198878F830E94CD03E82EFF24002717
:100BC0001127E4E0EE0CFF1C001F111FEA95D1F77E
:100BD000E0921401F0921501009316011093170191
:100BE000EF81F8853196F887EF83CF010E94CD031E
:100BF000E80EF11C011D111D74E0EE0CFF1C001F1E
:100C0000111F7A95D1F7E0921401F092150100932B
:100C10001601109317018F819885019698878F830D
:100C20000E94CD03E80EF11C011D111DE09214017C
:100C3000F09215010093160110931701EF81F885CA
:100C40003196F887EF83CF010E94CD03809319017D
:100C5000482F55270D2D112798012550304037FF7B
:100C600003C098012450304035952795421753070B
:100C700009F0AEC2893008F0ABC2D0901801D81686
:100C800008F02EC28F819885019698878F830D2D4D
:100C900011270D5E1E4F0E94CD03F82EFF0CFF0C96
:100CA000FF0CFF0CF801F7828F81988501969887D9
:100CB0008F830E94CD03F80EF801F782D3948091C0
:100CC0001901DDCF809122019091230182FF80C222
:100CD000809122019091230183FD7AC2FAE0DF1610
:100CE00009F076C281E080931801809313018B8113
:100CF0009C8198878F830E94CD03E82EFF240027D4
:100D0000112734E0EE0CFF1C001F111F3A95D1F79C
:100D1000E0921401F092150100931601109317014F
:100D2000EF81F8853196F887EF83CF010E94CD03DC
:100D3000E80EF11C011D111D24E0EE0CFF1C001F2C
:100D4000111F2A95D1F7E0921401F092150100933A
:100D50001601109317018F819885019698878F83CC
:100D60000E94CD03E80EF11C011D111D94E0EE0C54
:100D7000FF1C001F111F9A95D1F7E0921401F09209
:100D800015010093160110931701EF81F885319634
:100D9000F887EF83CF010E94CD03E80EF11C011DFF
:100DA000111D84E0EE0CFF1C001F111F8A95D1F766
:100DB000E0921401F09215010093160110931701AF
:100DC0008F819885019698878F830E94CD03E80EC6
:100DD000F11C011D111DB4E0EE0CFF1C001F111FC2
:100DE000BA95D1F7E0921401F09215010093160123
:100DF00010931701EF81F8853196F887EF83CF01C3
:100E00000E94CD03E80EF11C011D111DA4E0EE0CA3
:100E1000FF1C001F111FAA95D1F7E0921401F09258
:100E2000150100931601109317018F819885019683
:100E300098878F830E94CD03E80EF11C011D111DC0
:100E4000F4E0EE0CFF1C001F111FFA95D1F7E092A1
:100E50001401F09215010093160110931701EF8110
:100E6000F8853196F887EF83CF010E94CD03E80E15
:100E7000F11C011D111DE0921401F0921501009367
:100E80001601109317018F81988501960E94CD035A
:100E90008093190125C1809122019091230182FF45
:100EA00097C1809122019091230183FD91C18D2DE5
:100EB0008A50813108F08CC11092180181E0809332
:100EC00013018D819E8198878F830E94CD03E82E28
:100ED000FF2400271127E4E0EE0CFF1C001F111F68
:100EE000EA95D1F7E0921401F092150100931601F2
:100EF00010931701EF81F8853196F887EF83CF01C2
:100F00000E94CD03E80EF11C011D111D74E0EE0CD2
:100F1000FF1C001F111F7A95D1F7E0921401F09287
:100F2000150100931601109317018F819885019682
:100F300098878F830E94CD03E80EF11C011D111DBF
:100F400064E0EE0CFF1C001F111F6A95D1F7E092C0
:100F50001401F09215010093160110931701EF810F
:100F6000F8853196F887EF83CF010E94CD03E80E14
:100F7000F11C011D111D54E0EE0CFF1C001F111F80
:100F80005A95D1F7E0921401F092150100931601E1
:100F9000109317018F819885019698878F830E94FF
:100FA000CD03E80EF11C011D111D44E0EE0CFF1CE9
:100FB000001F111F4A95D1F7E0921401F09215011C
:100FC0000093160110931701EF81F8853196F88789
:100FD000EF83CF010E94CD03E80EF11C011D111D0E
:100FE00034E0EE0CFF1C001F111F3A95D1F7E09280
:100FF0001401F092150100931601109317018F81CF
:101000009885019698878F830E94CD03E80EF11C86
:10101000011D111D24E0EE0CFF1C001F111F2A955D
:10102000D1F7E0921401F09215010093160110938C
:101030001701EF81F8853196F887EF83CF010E9481
:10104000CD03E80EF11C011D111DE0921401F09278
:10105000150100931601109317018F819885019651
:1010600098878F830E94CD0380931901482F5527BD
:101070000D2D112798012A50304037FF03C09801E9
:1010800029503040359527954217530709F0A0C0E5
:10109000893008F09DC0D0901801D81608F5EF816E
:1010A000F8853196F887EF830D2D11270D5E1E4FC1
:1010B000CF010E94CD03F82EFF0CFF0CFF0CFF0C9C
:1010C000F801F7828F819885019698878F830E9417
:1010D000CD03F80EF801F782D39480911901DDCF8A
:1010E0000E940B03992776C08091220190912301E1
:1010F00082FF6EC0253431F4822F0E94D50080918A
:101100002401CACB81E40E94D50080911201C4CB96
:10111000F3E0DF1609F05CC098868F82C4010E945C
:10112000CD03D82EDD0CDD0CDD0CDD0CC4010196E9
:101130000E94CD03D82A87E40E94D5008D2D0E94FD
:10114000A503AACB85E0D81609F042C058864F8285
:10115000C2010E94CD03D82EDD0CDD0CDD0CDD0CB0
:10116000F2013196F887EF83CF010E94CD03D82A90
:101170008F819885019698878F830E94CD03182FC1
:101180001295107F8F81988501960E94CD03182BB0
:10119000612F8D2D0E94AD0318C080912201909186
:1011A000230180FF15C0809122019091230182FDCF
:1011B0000FC082E080930011809122019091230161
:1011C000846090932301809322018DE090E002C01F
:1011D00087E090E028960FB6F894DEBF0FBECDBF33
:1011E000DF91CF911F910F91FF90EF90DF90CF9003
:1011F000BF90AF909F908F907F906F905F904F9037
:101200003F902F900895C1EED4E0DEBFCDBF81B3F3
:10121000886181BB84B3806684BB0E94110180B762
:10122000806480BF80B7886380BF85B7806885BFD2
:101230008BB780648BBF8AEF81BF8BE083BF81E077
:1012400089BF1092110110921001A0E0B0E00E943D
:10125000F809802D8093340100E078948091220178
:101260009091230181FF7BC08091250190912A01FB
:10127000882329F5992311F484E701C082E70E94AD
:10128000D5008091260190912701A0912801B0916D
:101290002901892F9A2FAB2FBB27282F2F708F70F2
:1012A0009070A070B0700A97A105B10518F4822F54
:1012B000805D02C0822F895C0E94D5001DC09923E9
:1012C00011F484E501C082E50E94D50080912901D6
:1012D0000E94E200809128010E94E2008091260194
:1012E00090912701A0912801B0912901892F9A2F6F
:1012F000AB2FBB270E94E200809126010E94E200F2
:1013000080912B01805D0E94D500E0912A01EE239F
:1013100071F41E2F80912B01181748F4E12FFF273D
:10132000EB5DFE4F87810E94E2001F5FF3CF80914B
:101330003401882341F0809111010E94E2008091E4
:1013400010010E94E2008DE00E94D50080912201F0
:10135000909123018D7F90932301809322010E941D
:10136000C0008D3079F4CE0101960E94DB030E940B
:10137000D500FE0131960DE11192015007FFFCCF1F
:1013800000E06CCF882309F469CFFE01E00FF11D66
:1013900081830D3108F062CF0F5F60CF1F920F92F3
:1013A0000FB60F9211242F938F939F93809110016A
:1013B0009091110101969093110180931001805634
:1013C0009A4E20F010921101109210019F918F916E
:1013D0002F910F900FBE0F901F901895082E8062CE
:1013E000813624F087360CF4089516C0802D17C07E
:1013F000E199FECFBFBBAEBBE09A11960DB2089546
:10140000E199FECFBFBBAEBB0DBA11960FB6F894F3
:10141000E29AE19A0FBE08959927882708959111BD
:0A142000FBCF80538A50E0F70895D7
:10142A0000000000FFFFFFFF432F00303030310083
:00000001FF
